:020000040800F2
:1000000008060020D5000008B10A0008510A0008BF
:1000100000000000000000000000000000000000E0
:10002000000000000000000000000000210D00089A
:100030000000000000000000050B0008250D00086E
:100040000501000805010008050100080501000878
:100050000501000805010008050100080501000868
:100060000501000805010008050100080501000858
:100070000501000805010008050100080501000848
:100080000501000800000000000000000501000854
:100090000000000005010008050100080501000836
:1000A0000000000005010008050100080501000826
:1000B0000501000800000000B9070008050100085C
:1000C0000348854600F052F800480047051500082F
:1000D000080600200C4880F308880C480168090EC7
:1000E0000B4A914205D10B480B4901600B480C4962
:1000F00001600C4880470C480047FEE7FEE7FEE73A
:10010000FEE7FEE7FEE7000008060020040000000E
:100110001F00000018100240010000000000014014
:1001200000000000810D0008C100000830B50B463A
:10013000014600202022012409E00D46D5409D42C1
:1001400005D31D469540491B254695404019154647
:10015000521E002DF1DC30BD0321001D401E03782E
:1001600012021A43491EF9D510467047064C012564
:10017000064E05E0E36807CC2B430C3C984710344F
:10018000B442F7D3FFF7A0FF0019000820190008B8
:1001900030B53C4D93B0284600F09AF80121480450
:1001A00000F0B2FC0121480200F0D2FC0121084617
:1001B00000F0AAFCF120069003206946087700248D
:1001C000CC7706A9680400F0F7FB684600F0D1F888
:1001D000694600940C71029404942846059400F03A
:1001E000ADF807220121284600F052F8072210211D
:1001F000284600F04DF807222021284600F048F854
:1002000007224021284600F043F807228021284693
:1002100000F03EF8284600F06BF80221284600F076
:100220004FF80121284600F041F80121284600F04E
:1002300034F80121284600F072F80028F9D0124D58
:10024000284600F03BFB0F480A94403008900F48C6
:10025000099032200B9080200D9040000E9080007D
:100260000F90202010900C940002119008A9129475
:10027000284600F083FB0121284600F013FB13B051
:1002800030BD000000240140080002406E01002043
:10029000836A0B438362426170470029816801D001
:1002A000012200E002221143816070470029C168E9
:1002B00002D00122114301E049084900C1607047A2
:1002C000C26802239A43C260C2680A43C260704790
:1002D000064910B5884208D144150121204600F096
:1002E00043FC0021204600F03FFC10BD00240140EB
:1002F000826800210123DB071A4382600F231B035E
:100300008268491CD20FD207994201D0002AF7D146
:100310008168002901DB006C7047002070470246AD
:100320000020CB0104D5926801231B069A4300E00C
:1003300012680A4200D001207047000030B5C26840
:10034000084B8C681A400B680D792343CC686D0309
:100350002C4323430C69496923430B431343C36074
:1003600030BD000003D2FFFF816804221143816089
:1003700070470021016001718160C16001614161CC
:1003800070470000064A05485188405C491C89B204
:100390005180FE2901D1002151807047700000205A
:1003A00020000020044801884088814201D10020BB
:1003B00070470120704700002000002010B5012187
:1003C0004C06204600F0B8FB0021204600F0B4FBAC
:1003D00010BD000070B50446817A012005462B4E01
:1003E0008D40316801433160F069A843F061207BA2
:1003F000002812D1F068A843F060E088618800040A
:100400000843A17AC90089190864A08821880004DA
:100410000843A17AC90089194864207B012814D1B6
:10042000F0682843F0602046FFF796FE1021C8418F
:10043000A17AC90089190864201DFFF78DFE1021DB
:10044000C841A17AC90089194864E07A0028706817
:1004500005D0284370602089002802D004E0A8431A
:10046000F8E77069A84370612089012802D170699A
:1004700028437061607B012802D1F0692843F06154
:10048000306840084000306070BD000000660040E9
:10049000002A426901D00A4300E08A434261704762
:1004A00010B5036800220224A343036003680124FB
:1004B00023430360314B00E0521C4468E40701D140
:1004C0009A42F9D14268D2073ED08C798022012C21
:1004D00004683BD094430460CC794022012C04682A
:1004E00036D0944304600C7A2022012C046831D069
:1004F000944304604C7A1022012C04682CD094435D
:1005000004608C7A0822012C046827D0944304608C
:10051000CC7A0422012C046822D0944304608A78A7
:10052000CC789207240622430C79240422434C7988
:10053000098824052243491E0A43C261016849080B
:100540004900016000210EE0002010BD1443C2E705
:100550001443C7E71443CCE71443D1E71443D6E769
:100560001443DBE7491C4268D20701D09942F9D114
:100570004068C007E8D1012010BD0000FFFFFF0068
:10058000F1B501218AB0480400F0BEFA0121480605
:1005900000F0C6FA022669460E74002403208C740B
:1005A000C00203900125CD74032048740927FF067B
:1005B00003A9384600F000FA04220B21384600F067
:1005C00033FA04220C21384600F02EFA194F38462F
:1005D000FFF7F4FE69468C71CC7102940A9888701A
:1005E000CC70072008714E71082008803846FFF74C
:1005F00057FF08A98C70CD700D7180206946088363
:100600004C838C83CC830C8408A94D7106A8FFF71A
:10061000E1FE1E20694608754E758D7505A800F02F
:1006200049FA012202213846FFF732FF00200BB0C1
:10063000F0BD0000006400400B0130B51B18FF3313
:1006400081331C6B04252C4014721C6B29D0E408E8
:1006500054601C6B02252C4054725C6B2407240FE1
:1006600094725C6B240AD4749C6BD4729C6B240AC5
:1006700014739C6B240C54739C6B240E9473DC6B6E
:10068000D473DC6B240A1474DC6B240C5474DB6BA1
:100690001B0E93742022002906D0016911430161C9
:1006A00030BD640D1460D4E7C1681143C16030BD32
:1006B00030B50246936800205B0108D490680001C1
:1006C00001D5012003E09068C0002ED5022003016F
:1006D0009A18FF3281321368DB07DB0F13600B7A45
:1006E000002B24D014684D681C434B7AED002B433B
:1006F0001C4314608B7A1B071B0F8B7253681B09FA
:100700001B01536053688C7A23435360CB68CC7AC7
:100710001B02234393600B69C97B1B020B43D3600D
:10072000116801231943116030BD042030BD1368E6
:100730004C7A23430C88640523431360DAE70000F6
:100740000022002904D0012905D0022906D112E097
:100750008268134801E08268124802401249501A28
:100760008A4218D00ADC002A17D01048101811D07D
:10077000022810D10DE082680D48EEE7FF38FF38FF
:10078000801E06D00B49401804D00121490488423C
:1007900001D10120704700207047022070470000FF
:1007A000030000040003000800010008FFFFFFFB36
:1007B000000003100003FFF7F0B585B06A46002182
:1007C0001148FFF739FF00206E461049104A0746CE
:1007D000B57A0CE03318DB7A0C8813550B885B1C58
:1007E0000B800B88FE2B00D10F80401CC0B28542CD
:1007F000F0D88021074800F027F90748006807492A
:10080000086005B0F0BD000000640040200000203A
:100810007000002000040048300000203400002058
:10082000F0B585B00022402300936C4601922272FD
:100830006272A1726B4604E0845C9D18521CEC72DB
:1008400092B28A42F8D3124F19463846FFF730FF6A
:10085000064600240F4D01E0641CA4B23146384620
:10086000FFF76EFF002801D1AC42F5D3AC4205D3AF
:100870000020FFF785FE012005B0F0BD40210648AD
:1008800000F0E2F805480068054908600020F3E739
:1008900000640040FF0F000000040048300000200A
:1008A000380000200029016802D00122114301E034
:1008B000014A114001607047FEFF0000F0B5016879
:1008C0002B4A114001600021016041608160C160DC
:1008D0002849284A08390F2390422DD0254AF02470
:1008E000143290422FD0234A1D022832904231D038
:1008F000204E1A033C36B04203D1486815E04860E8
:10090000F0BD1C4F0F2650373604B8422DD0194F7A
:100910006437B84202D14868320106E0154F783793
:10092000B84204D148680F2212061043E7E7124983
:10093000114F0839B84202D148681843DFE70E4B1F
:100940001433984202D148682043D8E70A4B283331
:10095000984202D148682843D1E7074B3C3398427C
:10096000CBD0054A50329042CAD148683043C6E7DE
:10097000FEFF0000080002400804024030B5036892
:100980000C4A0C6A13408A684D6922430C692C4357
:1009900022438C692243CC6922434C6A22438C6AED
:1009A00022431A430260CA6842600A68826049684A
:1009B000C16030BD0F80FFFFF0B500220325012389
:1009C0000C6893401C409C422AD10C79012C01D028
:1009D000022C12D1876854002E46A640B743876088
:1009E0004E79A64084682643866084889C43848030
:1009F00084888B7993401C438480066853002C467E
:100A00009C40A64306600E7907689E403E43066000
:100A1000C668A643C660CC799C40C3681C43C460CA
:100A2000521C102ACBD3F0BD4B07DB0E9A40C908ED
:100A300010B589000818016A0F249C40A143016287
:100A4000016A1143016210BD0185704781617047E1
:100A5000FEE700007CB503200121400400F054F8BB
:100A600001206A4610710021917103215171D071EA
:100A7000C8200E4C009069462046FFF79DFFC82114
:100A80002046FFF7E3FFFF2409250134ED06694600
:100A900028460094FFF790FF21462846FFF7D6FF2F
:100AA000FF20F53000F0EEFC7CBD000000040048A3
:100AB0007047000030B5827801240178002A15D0F3
:100AC0008B080E4A9B009A1813688907C90EFF25E8
:100AD0008D40AB434578AD072D0E8D401D4315600D
:100AE0000078C006C00E8440054804E0C806C00E69
:100AF000844003488030046030BD000000E400E022
:100B000000E100E070470000044A0029516901D06B
:100B1000014300E081435161704700000010024032
:100B2000044A0029D16901D0014300E08143D16129
:100B30007047000000100240044A0029116901D0EA
:100B4000014300E081431161704700000010024042
:100B5000044A0029916901D0014300E08143916179
:100B60007047000000100240044A0029D16801D0FB
:100B7000014300E08143D160704700000010024053
:100B800070B5002400F034F8012000F08BF8052542
:100B90002D0300E0641C012000F058F8002801D16A
:100BA000AC42F7D1012000F051F800281CD00F49C9
:100BB00011200860002000F06BF8002000F080F8A1
:100BC0000521C904002000F093F8012000F082F80C
:100BD000192000F03BF80028FAD0022000F096F827
:100BE00000F04EF80828FBD170BD00000020024044
:100BF000124801680122114301604168104A114006
:100C0000416001680F4A11400160016801229204AD
:100C10009143016041683F22120491434160C16ADF
:100C200009090901C162016B074A11400163416B67
:100C3000490849004163002181607047001002406B
:100C40000CB8FF08FFFFF6FEACFEF0FF03460020E5
:100C50000A4A59090CD001290CD002290CD0516B39
:100C6000DA06D20E012393400B4200D001207047D8
:100C70001168F5E7116AF3E7516AF1E700100240E5
:100C8000024840680C2108407047000000100240F4
:100C9000034A5168F02399430143516070470000B3
:100CA0000010024005490028086802D001221043C4
:100CB00001E040084000086070470000001002405A
:100CC000034A516807231B0299430143516070474F
:100CD000001002400122054912060028086801D0D0
:100CE000104300E09043086070470000001002408D
:100CF00010B5054A53687B24E403A343536053684B
:100D000008430343536010BD00100240034A51687A
:100D100089088900014351607047000000100240BB
:100D20007047000002480168491E016070470000DA
:100D30003000002070B50E487D21C9000D4C0068C0
:100D4000FFF7F4F90C4A0723401EA04201D9012104
:100D50000BE05061094EF16903250902090AAD074C
:100D60002943F1610021916113610029EDD170BD2A
:100D70000C000020FFFFFF0000E000E004ED00E0B9
:100D8000134801680122114301604168114A114072
:100D900041600168104A114001600168012292041B
:100DA0009143016041683F22120491434160C16A4E
:100DB00009090901C162016BFF22543291430163A9
:100DC000416B490849004163002181607047000080
:100DD000001002400CB8FF08FFFFF6FE0029018852
:100DE00002D00122114301E0490849000180704707
:100DF000806B7047F0B503208BB001214004FFF7F2
:100E000083FE022568460571032141710024847127
:100E10000126C6713E480927FF06009069463846FC
:100E2000FFF7CAFD3320009069463A48FFF7C4FD3A
:100E3000012205213748FFF7F7FD0122042135483B
:100E4000FFF7F2FD02220F213846FFF7EDFD0122E8
:100E500011463048FFF7E8FD012200212D48FFF739
:100E6000E3FD022203213846FFF7DEFD0222114690
:100E70003846FFF7D9FD022201213846FFF7D4FD9D
:100E800001210320FFF74CFE2F2168468183C48394
:100E900021480890684684846C0707A9204600F022
:100EA00045F91E4F07A9384600F040F97021684601
:100EB0000181468185821A48049002A9384600F0D3
:100EC0006FF802A9384600F02DF802A9204600F07C
:100ED00029F802A9384600F0EFF802A9384600F0D8
:100EE000A7F802A9204600F0E7F802A9204600F082
:100EF0009FF802A9204600F053F801212046FFF791
:100F00006DFF01213846FFF769FF0BB0F0BD00000F
:100F10000E800000000400481F4E00000004004046
:100F2000DC05000070B5028C520852000284048C6B
:100F30008288038B7025AB439B080D889B001D4363
:100F400002239C438E894B882643104C3343A04296
:100F500008D00F4CA04205D00E4CA04202D00E4C3F
:100F6000A0420DD10824A343CC891C4304239C43F5
:100F70008B882343094C22400C8A14434A8A22431B
:100F80008280058389684163038470BD002C014021
:100F9000004001400044014000480140FFFC0000C7
:100FA00070B5028C10239A430284048C8288038BD0
:100FB0001A4D2B400D782D062D0C1D4320239C43EC
:100FC0008B891B051E0C4B8826431B051B0C144CE0
:100FD0003343A04202D0134EB04219D1124E3240D8
:100FE0000E8AB604360C3243A04211D18024A343AA
:100FF000CC892405240C1C4340239C438B881B056F
:101000001B0C2343094C22404C8AA404240C224389
:101010008280058389688163038470BDFF8C000032
:10102000002C014000400140FFFB0000FFF70000E2
:1010300030B5028C1A4B1A400284038C8288848B50
:101040007025AC43A4080D88A4002543154C23400B
:101050000C7B2406240C1C438B781B061B0C23439F
:10106000114CA04215D1114C23408C7B2406240C3A
:101070001C430F4B1C400B791B061B0C23430D4CD0
:1010800022400C8A2405240C14434A8A1205120CAF
:101090002243828085838968C163038430BD000058
:1010A000FFFE0000FFFD0000002C0140FFF70000E4
:1010B000FFFB0000FFCF000030B5028C124B1A403E
:1010C0000284058C8288838B104C23400C78240684
:1010D000240C1C430E4B1D400B7B1B071B0C2B438E
:1010E0008D782D072D0C1D430A4B984205D10A4BD4
:1010F00013400A8A9205120C1A43828084838968FD
:101100000164058430BD0000FFEF0000FF8C00008B
:10111000FFDF0000002C0140FFBF0000416370476B
:1011200081637047C16370470164704710B50288DE
:10113000144B984206D00124A407A04202D0124CBE
:10114000A04203D17024A2434C8822430F4CA042FA
:1011500003D00F4C22400C89224302804A68C262AD
:101160000A880285984208D00A4A904205D00A4A65
:10117000904202D0094A904201D1897A0186012128
:10118000818210BD002C014000040040001000408E
:10119000FFFC0000004001400044014000480140C5
:1011A00030B47446641E2578641CAB4200D21D46E0
:1011B000635D5B00E31830BC184702E008C8121FEB
:1011C00008C1002AFAD170477047002001E001C130
:1011D000121F002AFBD1704710B50B498A79824251
:1011E00011D00A7A002A0ED088710124A407074979
:1011F0002046FFF797FFC82000F044F97D21C90081
:101200002046FFF78FFF10BD58000020DC050000CE
:1012100010B50B480A49828A012080078989022A71
:101220000BD1084A914202D90649C83105E09142E2
:1012300002D20449C83900E01146FFF76FFF10BD24
:1012400058000020DC05000010B50B480A4A818ACE
:101250000A485289022902D00949891A04E0094939
:101260008A4204D90749C831FFF75AFF10BD8A42A4
:10127000FAD20449C839F7E75800002000040040BA
:10128000B80B0000DC05000010B50C480B490378D2
:1012900084784A780A48C978A34204D08A4202D1A5
:1012A0007D21C90007E0A34204D18A4202D07D21FA
:1012B000090100E00349FFF737FF10BD5800002087
:1012C00000040040DC05000010B50948818A094887
:1012D000002905D0012906D0022908D1064904E0D9
:1012E0007D21090101E07D21C900FFF717FF10BD35
:1012F0005800002000040040DC05000010B509483B
:10130000007A00280CD00124A4072046FFF770FDC6
:101310000549884201D17D2109012046FFF700FFE0
:1013200010BD000058000020DC05000070B5084C1E
:101330000025E0790126002804D000F01DF8E571B1
:10134000267270BD00F006F8E671257270BD0000CF
:101350005800002010B50124A4072046FFF748FDDF
:101360000449884201D17D2109012046FFF7D8FEBA
:1013700010BD0000DC05000010B50124A4072046C4
:10138000FFF736FD0449884201D17D21C90020467E
:10139000FFF7C6FE10BD0000DC05000070B5164C5E
:1013A0001649A08840181649884203D26089154919
:1013B000884205D9FF2109200131C006FFF744FB0F
:1013C000E0884B218901411A0F4A00250F489142BC
:1013D00003D30821FFF738FB0BE021897D22D200DF
:1013E000914206D92178491CC9B221700329F0D253
:1013F00070BD257070BD000024000020C2D4FFFF26
:101400009D090000AC0D0000090700000004004821
:1014100010B5002000F040F8094C6080012000F079
:101420003BF8A080042000F037F86081022000F033
:1014300033F8E080032000F02FF8208110BD000079
:101440002400002010B5FFF79BFCFFF799FBFFF786
:1014500071FCFFF7FFFAFEF79BFE0020FFF790F804
:10146000FFF7C8FC10BD0A881346424010015040E7
:10147000C0B21A0A03025A40C3005A40000942404F
:101480000A80704703490A680B68D31A8342FBD36A
:10149000704700003000002010B5044600201549B8
:1014A00002468300C3181B195B00CB5A401C9A18D4
:1014B000C0B20A28F5D30A211046FEF737FE2300F2
:1014C000FFF76EFE05040B0F131316000A4948437D
:1014D00009218902FEF72AFE0AE008494843800AEA
:1014E00006E007494843400A02E0A5214843C009F5
:1014F00080B210BD6E01002055090100F70D0000FB
:10150000CB020000FFF79EFF674F684C00F0FAF82F
:10151000012849D166480078002835D1FFF794FEAC
:10152000FFF776FE6348018863480088814210D047
:1015300038682168401A7D21C900884209D90120F4
:10154000FFF74AFE2068386021685C480160FFF7B9
:10155000D5FE5B4801885B480088814210D038681E
:101560002168401A7D21C900884209D90020FFF76F
:1015700033FE20683860216850480160FFF7D6FECE
:10158000FFF782FEFFF7A0FE4B4801884948018023
:101590004C4801884A4801804B484C490078087003
:1015A0004B484C49007808704B4E4C4D30782978A8
:1015B000884215D038682168401A7D21C9008842C8
:1015C0000ED920683860FFF7B1FE45490878401C05
:1015D000C0B20870032803D128783070002008704A
:1015E000404801682268891A0A2932D321680160BB
:1015F0003D48FEF7B9FE3D4D0A212868FEF796FDED
:10160000002909D120687D21C0430901884203D9FE
:10161000FFF7FEFEFFF7C2FE64212868FEF786FD95
:10162000002913D120683249C04388420ED92C4981
:10163000491CC879401CC0B2C871FF2801D10020E4
:10164000C87127480821401CFFF7EAF82868401CA9
:101650002860284800682168401A322803D9802170
:101660002548FFF7F3F9254800682168401A322819
:1016700003D940212048FFF7E9F9104D2868216877
:10168000401AFF21F531884200D83FE71C4E012067
:1016900031468007FFF744FD012031468007FFF700
:1016A00041FD2068286031E74C0000203000002018
:1016B0005D00002054000020680000205000002041
:1016C000560000206A0000205A0000205800002028
:1016D0005B000020590000206E0000205C0000200C
:1016E000000000203C0000200024014040000020B9
:1016F000B80B00003400002000040048380000202F
:10170000DC05000010B51F4C08E0FEF73BFE6072E0
:1017100001461D4800F03AF8012805D0FEF742FEC8
:101720000128F2D0002010BD1748817C427C0902BC
:101730001143618101460A7DCB7C12021A43A281CA
:10174000827D437D12021A43E281827E437E100233
:1017500018432082087FCA7E000210436082084638
:10176000427FA270807FE070C91C487F097F000221
:101770000843A08204482030417B2171807B607146
:10178000012010BD58000020D201002070B5514D3D
:1017900000246C702A78034623330126002A1AD0CD
:1017A000012A24D0022A29D0032A2CD0042A2FD09F
:1017B000052A32D0062A37D0072A3AD0082A46D03E
:1017C000092A52D00A2A55D00B2A61D00C2A68D097
:1017D0000D2A72D073E0EB2971D100220170D2433F
:1017E0001A73120A5A7300F077F82E706BE0012911
:1017F00065D1417000F070F802205AE0817000F06D
:101800006BF8032055E0C17000F066F8042050E04A
:10181000017100F061F805204BE01E294FD14171A4
:1018200000F05AF8062044E0817100F055F80720D6
:101830003FE0AA788218D17100F04EF8A878401CD9
:10184000C0B2A87003283ED1AC70082031E0EA781D
:101850008218917200F040F8E878401CC0B2E8703D
:10186000062830D1EC70092023E0017400F034F830
:101870000A201EE02A798218517400F02DF8287988
:10188000401CC0B228711E281DD12C710B2010E005
:10189000587B1A7B00021043C0B288420FD10C2043
:1018A00007E0587B1A7B00021043000A884206D1E9
:1018B0000D20287007E000E001E0BE2905D02C7063
:1018C000AC70EC702C71687870BD203041742C7055
:1018D0006E70F8E74400002018B523300A46417BBB
:1018E0000446037B08021843694608801046FFF748
:1018F000BAFD694608882073000A607318BD0000AD
:10190000201900080000002070000000BA11000833
:10191000901900087000002098050000CA11000806
:1019200000AABBCCDDEE040000000000006CDC026D
:10193000000000000000000001020304060708097F
:101940000000000000000000000000000000000097
:10195000FFFFFFFFFFFFFFFFFFFFFFFFFFFFFFFF97
:10196000000000000000000000000000FFFFFFFF7B
:10197000FFFFFFFF0000000000000000000100006A
:101980000200000000000000000000000000000055
:04000005080000C12E
:00000001FF
